:020000040800F2
:10000000400800206D0F000851020008530200084C
:10001000570200085B0200085F02000800000000B1
:100020000000000000000000000000006302000863
:10003000650200080000000067020008690200086D
:10004000870F0008870F0008870F0008870F000838
:10005000870F0008870F0008870F0008870F000828
:10006000EB0800080709000823090008870F0008AB
:10007000870F0008870F0008870F0008870F000808
:10008000870F0008870F0008870F0008870F0008F8
:10009000870F0008870F0008870F00083F09000836
:1000A000870F0008870F0008870F0008870F0008D8
:1000B000870F0008E7040008870F0008870F000873
:1000C000870F0008870F0008870F0008870F0008B8
:1000D000870F00089F0B0008870F0008870F000894
:1000E000870F0008870F0008870F0008870F000898
:1000F000870F0008870F0008870F0008870F000888
:10010000870F0008870F0008870F0008870F000877
:10011000870F0008870F0008870F0008870F000867
:10012000870F0008870F0008870F0008870F000857
:1001300000F002F800F03AF80AA090E8000C8244BF
:100140008344AAF10107DA4501D100F02FF8AFF29C
:10015000090EBAE80F0013F0010F18BFFB1A43F0A5
:1001600001031847FC4400001C450000103A24BF5E
:1001700078C878C1FAD8520724BF30C830C144BF0C
:1001800004680C607047000000230024002500264E
:10019000103A28BF78C1FBD8520728BF30C148BFEA
:1001A0000B6070471FB51FBD10B510BD02F040FDBC
:1001B0001146FFF7F7FF00F00DF802F05EFD03B403
:1001C000FFF7F2FF03BC00F03DFC000000F0E5FA91
:1001D00000BFFEE708B50020009000BF00F0C8FB9C
:1001E0004FF4A06000F0E2FE4FF4E13000F039FC83
:1001F00041F61F41632000F029F900F0CEFA00F02B
:1002000005FB18E00C480078A8B100200A490870E6
:1002100010210A4800F072FC5221094800F06EFCDF
:100220005921084800F06AFC5621074800F066FC96
:10023000012006490870E5E75A00002088450008BB
:1002400066440008B844000811450008000000207A
:10025000704700BFFEE700BFFEE700BFFEE700BF3C
:10026000FEE7704770477047704700000CB50020EC
:10027000019000906C48006840F480306A49086042
:1002800000BF6948006800F4003000900198401CED
:100290000190009818B90198B0F5A06FF1D16248AB
:1002A000006800F4003010B10120009001E000204F
:1002B00000900098012843D15C48006840F010008D
:1002C0005A4908600846006820F0030008600846A4
:1002D000006840F002000860534840685249486096
:1002E0000846406848600846406840F480604860BE
:1002F0000846406820F47C1048600846406840F496
:10030000E81048600846006840F08070086000BF50
:100310004548006800F000700028F9D04248406865
:1003200020F00300404948600846406840F0020061
:10033000486000BF3C48406800F00C000828F9D134
:100340000CBD10B5FFF792FF10BD10B53648006820
:1003500040F00100344908600846406834490840CC
:100360003149486008460068324908402E49086013
:100370000846006820F4802008600846406820F4A1
:10038000FE0048604FF41F008860FFF7DAFF4FF06F
:1003900000602949086010BD10B50021002000222E
:1003A000214B5B6803F00C0121B1042906D0082918
:1003B00028D107E0214B224C236027E01F4B204C23
:1003C000236023E0184B5B6803F47010164B5B68E6
:1003D00003F48032022303EB904022B9194B4343CC
:1003E000174C23600DE0104B5B6803F4003323B11E
:1003F000144B4343124C236003E0104B4343104C17
:10040000236003E00D4B0E4C236000BF00BF064B82
:100410005B68C3F303130C4CE15C094B1B68CB40D6
:10042000074C236010BD0000001002400020024075
:100430000000FFF8FFFFF6FE08ED00E000127A0072
:100440000400002000093D00080000207FB505469B
:100450000C460121022001F040F9ADF80850ADF83A
:1004600004400020ADF80A00ADF8060001A93948A3
:1004700001F062FC01221146364801F0D4FF1D2034
:100480008DF8000001208DF8010003208DF8020096
:1004900001208DF80300684600F08DFD01212D48F4
:1004A00001F0A6FF7FBD1CB52B480088401C2A49DF
:1004B00008800846008841F28831884202D1002035
:1004C000254908802448008824490880224800885B
:1004D00048800846016800914068014601900098F4
:1004E00000F071F81CBD3EB501211A4802F049FA2E
:1004F00078B30121174802F055FA1948D0E90020D5
:10050000521C40F100001649C1E90020154800784E
:10051000F8B17D200290084603C8CDE900011248D9
:1005200012490CC803C900F086FC04462146104855
:1005300000F0E4FA0F480078401C0E4908700846A5
:100540000078C82805DD0020087010210A4800F056
:10055000D5FA3EBD000400403000002032000020EB
:10056000280000200000002048000020400000205B
:100570007C000020200000208845000810B54FF4C2
:100580000051964800F08DFE4FF48041934800F0F2
:100590008AFE10BD10B58021914800F082FE4FF414
:1005A00000718F4800F07FFE10BD10B50446214653
:1005B0008C4802F0B5F910BD10B5044621468948B3
:1005C00002F0B2F910BD13B5BDF8000042F210718F
:1005D000884203DCBDF80200884200DD1CBDBDF886
:1005E0000400012806D0022813D0032820D00428B4
:1005F0003CD12CE04FF40051784800F052FE4FF40B
:100600008041764800F04FFEBDF80000FFF7CDFFB7
:100610002CE04FF40051714800F045FE4FF480414A
:100620006E4800F03EFEBDF80000FFF7BEFF1DE083
:100630004FF40051694800F036FE4FF4804167489E
:1006400000F031FE42F21070FFF7AFFF0EE04FF402
:100650000051624800F025FE4FF480415F4800F0F1
:1006600020FE42F21070FFF7A0FF00BF00BFBDF8F0
:100670000600012806D0022812D003281ED0042824
:1006800038D129E08021564800F00BFE4FF400716C
:10069000534800F008FEBDF80200FFF78DFF29E087
:1006A00080214F4800F0FFFD4FF400714C4800F0EE
:1006B000F8FDBDF80200FFF77FFF1BE080214848EE
:1006C00000F0F1FD4FF40071454800F0ECFD42F2FE
:1006D0001070FFF771FF0DE08021414800F0E1FD4F
:1006E0004FF400713E4800F0DCFD42F21070FFF75D
:1006F00063FF00BF00BF00BF70E730B589B005469B
:100700000C460121042000F0E8FF0121082000F040
:10071000D7FF4FF4A070ADF8200018208DF823000B
:1007200003208DF8220008A92D4800F00DFDADF83A
:100730001850ADF814400020ADF81A00ADF81600BE
:1007400005A9284801F0F8FA6020ADF8040001205E
:10075000ADF806000020ADF80C0001A9214801F019
:1007600028FB01A91F4801F0B3FB08211D4801F037
:100770006FFF08211B4801F081FF0121194801F09A
:1007800037FE09B030BD1CB5174903C9CDE90001DA
:10079000DDE90001FFF717FF1CBD08B50121482066
:1007A00000F08EFF4FF42070ADF8000010208DF89F
:1007B000030003208DF802006946094800F0C4FCDC
:1007C0004FF4C040ADF800006946044800F0BCFC9E
:1007D000002141F28730FFF790FF08BD001801406B
:1007E000000C014000080040C845000808B5012180
:1007F000202000F065FF5C20ADF8000048208DF857
:1008000003006946574800F09FFC08BD0EB5FFF78E
:10081000EDFF0121084600F053FF0221032000F004
:10082000A9FD0420019000208DF808000C208DF80F
:10083000090001208DF80A0001A802F0C5F8032183
:10084000084600F097FD0820019001A802F0BCF8CE
:100850000421032000F08EFD1020019001A802F079
:10086000B3F80621032000F085FD4020019001A887
:1008700002F0AAF808208DF8000002208DF801008F
:100880008DF8020001208DF80300684600F093FB0C
:1008900009208DF8000002208DF8010001208DF85C
:1008A00002008DF80300684600F085FB0A208DF8F1
:1008B000000002208DF8010000208DF802000120C8
:1008C0008DF80300684600F076FB17208DF80000D5
:1008D00002208DF8010000208DF8020001208DF823
:1008E0000300684600F067FB0EBD10B51E480368A4
:1008F00040685A1C40F100001B490A60486004200F
:1009000002F0D9F810BD10B51748036840685A1CAA
:1009100040F1000014490A604860082002F0CBF85A
:1009200010BD10B51148036840685A1C40F1000022
:100930000E490A604860102002F0BDF810BD10B5E5
:10094000402002F098F8012808D108480268406861
:10095000521C40F1000005490A604860402002F046
:10096000AAF810BD001401404800002040000020FB
:1009700010B56FF0040000F068FB2E4800682E49A7
:10098000B0FBF1F02D4908700846007800EB4001FB
:10099000C1EBC0104FF6FF7101EAC0002849088082
:1009A00010BD0146254A12784A434FF0E0235A61B0
:1009B00000229A611A46126942F001021A6100BFD0
:1009C0004FF0E022106900F001021AB100F4803209
:1009D000002AF5D04FF0E022126922F001024FF018
:1009E000E0231A6100229A6170470146144A128876
:1009F0004A434FF0E0235A6100229A611A46126975
:100A000042F001021A6100BF4FF0E022106900F0CD
:100A100001021AB100F48032002AF5D04FF0E02232
:100A2000126922F001024FF0E0231A6100229A615C
:100A3000704700000400002000127A0050000020DF
:100A400052000020014600BF704700BFB74A12881D
:100A500002F04002002AF9D0C2B2B44B1B1D1A802A
:100A6000704710B586B00446012144F2040000F03E
:100A700027FE4FF40070ADF8140003208DF8160027
:100A800018208DF8170005A9A94800F05DFB4FF468
:100A90008060ADF8140004208DF8170005A9A44863
:100AA00000F052FB25208DF8000000208DF8010099
:100AB00003208DF8020001208DF80300684600F045
:100AC0007AFA01940020ADF80800ADF80A00ADF8FC
:100AD0000C00ADF810000C20ADF80E0001A99348F1
:100AE00000F095FE012240F22551904800F027FFCA
:100AF00001218E4800F017FF06B010BD70B5054605
:100B00000E4600240CE0295D884800F079FF00BF04
:100B10004021864800F0E2FF0128F9D1601C84B230
:100B2000B442F0DB70BD704708B5002100918149E7
:100B3000095C3039804A9180811CC8B27D49095CCA
:100B40003039D180811CC8B20021118051800CE065
:100B50007849095C3039784A128802EB820201EB4D
:100B60004201754A1180411CC8B27249095C2C29A6
:100B7000EED1411CC8B20CE06E49095C30396E4AB6
:100B8000528802EB820201EB42016B4A5180411C08
:100B9000C8B268490978091D8142EDDC08BD0EB56F
:100BA00040F22551614800F0AFFF002871D05F4846
:100BB00000F02AFFC0B2029060480078072818D2DF
:100BC000DFE800F004182543496C89009DF808000F
:100BD000FF280ED1012059490870FFF7A4FF58489B
:100BE000007830305749487155480078401C5449C6
:100BF000087098E09DF80800FE2807D102204F49B0
:100C00000870002050490870FFF78DFF8BE09DF8B9
:100C1000080048494C4A127888544B480078401CD8
:100C2000494908700846007802280DD141480078EB
:100C3000464908700846007808B90020087003206B
:100C40003E490870FFF76FFF6DE004203B490870D4
:100C5000FFF769FF67E09DF8080036493A4A1278C5
:100C6000885439480078401C374908700846007895
:100C7000042812D1FFF757FF34480078002809DD17
:100C800005202E49087031480078001D3049087051
:100C900003E049E006202949087044E02A4800782A
:100CA0002B490978884215DA9DF808002149264A1F
:100CB0001278885424480078401C2349087008465C
:100CC000007823490978884204D106201B4908701E
:100CD000FFF729FF27E01D48007858B915488078AC
:100CE0000B2803D100201B49087016E001201A4987
:100CF000087012E00F48807864280BD10820FFF7B5
:100D000013FF0D480168009140680146019000986A
:100D1000FFF759FC00200E490870002007490870B1
:100D2000FFF701FF00BF00BF0EBD0000003801400B
:100D300000080140A8010020320000205B000020D4
:100D400065000020180000205C00002064000020E6
:100D500066000020000000205A00002070B5044604
:100D60000D460020D4F10901A84106DB0021084608
:100D7000091BA84101DA012600E0002609E00A2249
:100D800000232046294601F0A0FE04460D46701CB3
:100D900086B2611E75F10000F1DA304670BD2DE9B2
:100DA000FF5F84B016461F46B046B9463046394606
:100DB000FFF7D4FF83464FF0000A36E0ABF10101A4
:100DC000A1EB0A0002F012FF02460B46CDE900013A
:100DD0000020644901F0E4FFCDE9020103F06AFA62
:100DE00004460D4622462B464046494601F06DFE1C
:100DF0003030C1B2049850445B4A115422462B460D
:100E00004046494601F061FEC2B200232046A2FBE3
:100E100000CE03FB04E002FB0501B8EB0C0869EB14
:100E200001090AF101001FFA80FADA45C6DB5846CB
:100E300008B0BDE8F09F2DE9FF5F84B00746884603
:100E400000200190002438464146FFF787FF00F15B
:100E5000060BDDE90601FFF781FF8344DDE912019E
:100E6000FFF77CFF584485B2FF203F490855641CBA
:100E7000FE200855641C0D5529123B4A601C115474
:100E8000A41CE9B201EB2520C11700EB1161091286
:100E9000A0EB0121C1F1FF0189B203911146039832
:100EA0000855641C1498085514980112601C1154BC
:100EB000A41CA5F10409114601F80490C9F3072107
:100EC000601C1154C9F30741A01C11544FEA196169
:100ED000E01C1154241D3A4643462046FFF75FFFAD
:100EE000019001982044C4B22C201F490855601C71
:100EF000C4B22046DDE90623FFF751FF01900198B7
:100F00002044C4B22C2018490855601CC4B22046A5
:100F1000DDE91223FFF743FF019001982044C4B29A
:100F20004FF0050A08E0104810F80A00304486B275
:100F30000AF101001FFA80FAA245F4DB3046F117EE
:100F400006EB11610912A6EB0121C1F1FF01C9B243
:100F50000291054802990155601CC4B2204608B0B0
:100F6000BDE8F09F000024407C0000200948804735
:100F700009480047FEE7FEE7FEE7FEE7FEE7FEE77B
:100F8000FEE7FEE7FEE7FEE704480549054A064B93
:100F9000704700004B0300083101000840020020A8
:100FA0004008002040040020400400203149014353
:100FB000314A1160704770B5002100230F22C478B8
:100FC00004B32D4C246804F4E064C4F5E064210A01
:100FD000C1F10403CA40447804FA03F18478144050
:100FE00021430901254C0678A155047804F01F051A
:100FF0000124AC4005786D11AD0005F1E025C5F880
:10100000004109E0047804F01F050124AC401C4DA8
:101010000678761145F8264070BD1A4A0A40024308
:10102000154B1B1F1A60704739B1134A121D126805
:101030000243114B1B1D1A6006E00F4A121D126875
:1010400082430D4B1B1D1A607047042808D14FF0D6
:10105000E021096941F004014FF0E022116107E04D
:101060004FF0E021096921F004014FF0E022116105
:10107000704700000000FA050CED00E000E400E01D
:1010800080E100E080FFFF1F10B50446CC48844299
:1010900008D10121042000F02DFB0021042000F0E4
:1010A00029FB46E0C748844208D10121082000F00E
:1010B00021FB0021082000F01DFB3AE0C2488442D9
:1010C00008D10121102000F015FB0021102000F0B4
:1010D00011FB2EE0BD48844208D10121202000F000
:1010E00009FB0021202000F005FB22E0B8488442E3
:1010F00008D10121402000F0FDFA0021402000F03D
:10110000F9FA16E0B348844208D10121802000F0AA
:10111000F1FA0021802000F0EDFA0AE0AE488442A6
:1011200007D10121801500F0E5FA0021A01500F09B
:10113000E1FA10BD10B50121084600F0DBFA0021EC
:10114000012000F0D7FA10BD2DE9F041024600253C
:101150000026002000230024002791F803C00CF093
:101160000F0591F803C00CF0100CBCF1000F03D078
:1011700091F802C04CEA050591F800C0BCF1000FDF
:1011800031D0146800202BE04FF0010C0CFA00F372
:10119000B1F800C00CEA03069E4220D183004FF054
:1011A0000F0C0CFA03F7BC4305FA03FC4CEA0404E9
:1011B00091F803C0BCF1280F06D14FF0010C0CFAD6
:1011C00000FCC2F814C00AE091F803C0BCF1480F5B
:1011D00005D14FF0010C0CFA00FCC2F810C0401C05
:1011E0000828D1D31460B1F800C0BCF1FF0F34DD82
:1011F000546800202EE000F1080C4FF0010808FAB6
:101200000CF3B1F800C00CEA03069E4221D1830022
:101210004FF00F0C0CFA03F7BC4305FA03FC4CEA41
:10122000040491F803C0BCF1280F05D100F1080CAB
:1012300008FA0CF8C2F8148091F803C0BCF1480F0A
:1012400007D100F1080C4FF0010808FA0CF8C2F8B9
:101250001080401C0828CED35460BDE8F0814FF6C2
:10126000FF710180022181700421C1707047024624
:10127000002093680B400BB1012000E00020704774
:101280000146886880B2704702460020D3680B4050
:101290000BB1012000E0002070470146C86880B211
:1012A000704701617047416170470AB1016100E018
:1012B00041617047C16070474FF480320A438261D8
:1012C0008161826182698269704702460020434BD6
:1012D00018684FF68073184040EA021008433F4BED
:1012E000186070473E49C8617047F0B50A46002350
:1012F00000240021002500F00046B6F1004F02D185
:10130000364EF16901E0354E7168C0F3034583B292
:1013100000F44016B6F5401F08D121F070612F4E41
:10132000766826F070662D4F7E6012E000F480161D
:10133000B6F5801F06D1032606FA05F4A14341F055
:10134000706106E0460D360103FA06F6B14341F03E
:10135000706122B1460D360103FA06F6314300F002
:101360000046B6F1004F02D11C4EF16101E01B4E68
:101370007160F0BD30B500228B071C0F0F2303FAFC
:1013800004F2164B08338C1053F824309343134C5B
:1013900008348D1044F8253023468C1053F824303F
:1013A0008C07240F00FA04F423430C4C08348D10EE
:1013B00044F8253030BD0A49DC3108607047000030
:1013C00000080140000C01400010014000140140E1
:1013D00000180140001C01400020014000000140B5
:1013E00000002042DF48006840F00100DD4908604D
:1013F00008464068DC490840DA4948600846006809
:10140000DA490840D74908600846006820F480207F
:1014100008600846406820F4FE0048604FF41F0052
:1014200088607047CF49096821F48031CD4A116046
:101430001146096821F480211160B0F5803F03D086
:10144000B0F5802F0ED106E0C649096841F480311D
:10145000C44A116007E0C349096841F4A021C14AA8
:10146000116000E000BF00BF704710B501460022C8
:10147000002300204A11012A02D1BA4C236806E059
:10148000022A02D1B74C236A01E0B64C636A01F02C
:101490001F02012494401C400CB1012000E00020F8
:1014A00010BD38B5002000900024002500BF312079
:1014B000FFF7DBFF05460098401C00900098B0F550
:1014C000A06F01D0002DF2D03120FFF7CEFF08B180
:1014D000012400E00024204638BD01460020A14A36
:1014E000106820F0F80040EAC10010607047A04981
:1014F00008607047024600209A4B586820F47C1020
:1015000042EA01031843974B5860704798490866B0
:10151000704701460020934A506820F003000843BA
:10152000506070478F48406800F00C0070470146DB
:1015300000208C4A506820F0F0000843506070474B
:1015400001460020874A506820F4E060084350605C
:10155000704701460020834A506820F4605040EAFA
:10156000C1005060704729B17E4A527A02437D4BD8
:101570005A7204E07B4A527A82437A4B5A7270471D
:101580007B49D8310860704701460020754A506891
:1015900020F440400843506070470021714A2032D7
:1015A0001170704A82F82010012802D004280AD154
:1015B00004E001216B4A2032117005E00521694ADF
:1015C0002032117000E000BF00BF70476949086019
:1015D00070476449096A0143624A1162704765496C
:1015E00044390860704730B50021002200240023F0
:1015F0005C4D6D6805F00C0121B1042905D0082966
:1016000023D105E05C4D056022E05B4D05601FE0E5
:10161000544D6D6805F47012524D6D6805F48034B8
:10162000022505EB92421CB9544D554305600BE071
:101630004C4D6D6805F400351DB1504D55430560A6
:1016400002E04D4D5543056002E04B4D056000BF83
:1016500000BF444D6D6805F0F0010909484D6B5C11
:101660000568DD4045603F4D6D6805F4E061090A9D
:10167000434D6B5C4568DD4085603A4D6D6805F40F
:101680006051C90A3E4D6B5C4568DD40C560354D13
:101690006D6805F44041890B3A4D6B5CC568B5FB3C
:1016A000F3F5056130BD29B12E4A526902432D4B35
:1016B0005A6104E02B4A526982432A4B5A617047AF
:1016C00029B1284A92690243264B9A6104E0254ACF
:1016D00092698243234B9A61704729B1214AD269AA
:1016E0000243204BDA6104E01E4AD26982431D4B5B
:1016F000DA61704729B11B4AD2680243194BDA609C
:1017000004E0184AD2688243164BDA60704729B168
:10171000144A12690243134B1A6104E0114A126918
:101720008243104B1A617047124940390860704774
:101730000F49C86470470B49C87170470948406A2F
:1017400040F0807007494862704701460020054A12
:1017500092680A400AB1012000E000207047014968
:1017600088727047001002400000FFF8FFFFF6FE8D
:10177000000042428004424200127A0000093D000B
:10178000670000207700002010B50446FB48844223
:1017900009D101218803FFF7ADFF00214FF48040FC
:1017A000FFF7A8FF32E0F648844209D1012148043E
:1017B000FFF7ADFF00214FF40030FFF7A8FF25E051
:1017C000F048844209D101218804FFF7A0FF0021DD
:1017D0004FF48020FFF79BFF18E0EB48844209D1CB
:1017E0000121C804FFF793FF00214FF40020FFF709
:1017F0008EFF0BE0E548844208D101210805FFF780
:1018000086FF00214FF48010FFF781FF10BD2DE906
:10181000F04786B005460E460024A24600BFA1460A
:101820000027B08900B100BF2F462C8A4CF6FF700C
:101830000440F08804432C82AC894EF6F310044037
:10184000B08831890843718908430443AC81AC8A6C
:101850004FF6FF400440B0890443AC8201A8FFF773
:10186000C2FEC648874202D1DDF810A001E0DDF8D3
:101870000CA0A88900F4004040B10AEBCA0000EBBC
:101880000A1031684900B0FBF1F807E00AEBCA0022
:1018900000EB0A1031688900B0FBF1F86420B8FB56
:1018A000F0F004012009642101FB1089A88900F4EB
:1018B000004040B1322000EBC900B0FBF1F000F075
:1018C0000700044308E0322000EB09106421B0FB5C
:1018D000F1F000F00F0004432C8106B0BDE8F08762
:1018E0004FF41651016000218180C18001810C21DB
:1018F000418100218181704710B502460020108A85
:101900004FF2FF0318400B884C8823438C882343F5
:10191000CC8823431843108210BD002101804180F0
:101920008180C180704721B1828942F40052828156
:1019300004E082894DF6FF731A4082817047F0B54A
:101940000346002400260025002040F66A17B9420D
:1019500000D100BF1846C1F3421401F01F06012751
:1019600007FA06F5012C01D10C3004E0022C01D15C
:10197000103000E014301AB107682F43076002E00E
:101980000768AF430760F0BD1AB1838A0B438382B7
:1019900002E0838A8B4383827047028A4FF6F0739A
:1019A0001A400282028A0A430282704782894FF2F9
:1019B000FF731A40828182890A438281704721B174
:1019C000828942F00202828104E082894FF6FD732F
:1019D0001A4082817047028A4FF6DF731A400282F2
:1019E000028A0A430282704721B1028A42F480428D
:1019F000028204E0028A4BF6FF731A4002827047AB
:101A0000C1F308028280704701468888C0F308004D
:101A10007047818941F0010181817047028BD2B208
:101A20000283028B42EA012202837047028B02F496
:101A30007F420283028B0A430283704721B1828A6C
:101A400042F02002828204E0828A4FF6DF731A405D
:101A50008282704721B1828A42F01002828204E0C1
:101A6000828A4FF6EF731A408282704721B1828AD0
:101A700042F00802828204E0828A4FF6F7731A402D
:101A80008282704721B1828942F40042828103E060
:101A90008289C2F30E028281704721B1828A42F4A8
:101AA0000062828204E0828A4FF2FF731A408282CF
:101AB0007047828A4FF6FB731A408282828A0A43F9
:101AC0008282704721B1828A42F00202828204E05F
:101AD000828A4FF6FD731A408282704702460020C8
:101AE000B1F5007F00D100BF13880B400BB101207E
:101AF00000E00020704701F40072B2F5007F00D1D1
:101B000000BFCA430280704770B50246002400231C
:101B10000025002040F66A16B14200D100BFC1F393
:101B2000421501F01F03012606FA03F3012D02D12D
:101B30009689334006E0022D02D1168A334001E037
:101B4000968A33400C12012606FA04F416883440B3
:101B500013B10CB1012000E0002070BD10B50022CF
:101B6000002340F66A14A14200D100BF0A120124EA
:101B70009440A3B2DC43048010BD00000038014053
:101B80000044004000480040004C0040005000402D
:101B900010B50446FE48844208D10121C014FFF765
:101BA000A9FD0021E014FFF7A5FDC4E0B4F1804FCA
:101BB00008D101210846FFF7AAFD00210120FFF707
:101BC000A6FDB8E0F348844208D101210220FFF7C6
:101BD0009EFD00210220FFF79AFDACE0EE48844212
:101BE00008D101210420FFF792FD00210420FFF716
:101BF0008EFDA0E0E948844208D101210820FFF7CA
:101C000086FD00210820FFF782FD94E0E44884422D
:101C100008D101211020FFF77AFD00211020FFF7E5
:101C200076FD88E0DF48844208D101212020FFF7BB
:101C30006EFD00212020FFF76AFD7CE0DA48844237
:101C400008D101214014FFF755FD00216014FFF772
:101C500051FD70E0D548844209D10121C804FFF745
:101C600049FD00214FF40020FFF744FD63E0D04818
:101C7000844209D101210805FFF73CFD00214FF402
:101C80008010FFF737FD56E0CA48844209D1012190
:101C90004805FFF72FFD00214FF40010FFF72AFD44
:101CA00049E0C548844208D101214020FFF72FFDBB
:101CB00000214020FFF72BFD3DE0C048844208D1C1
:101CC00001218020FFF723FD00218020FFF71FFD69
:101CD00031E0BB48844208D101218015FFF717FD90
:101CE0000021A015FFF713FD25E0B648844209D175
:101CF00001210804FFF7FEFC00214FF48030FFF7BC
:101D0000F9FC18E0B048844209D101214804FFF7EA
:101D1000F1FC00214FF40030FFF7ECFC0BE0AB4886
:101D2000844208D101218804FFF7E4FC00214FF42C
:101D30008020FFF7DFFC10BD00220288944B984200
:101D40000ED0994B98420BD0B0F1804F08D0914BF8
:101D5000984205D0904B984202D0904B984204D1C3
:101D60004FF68F731A404B881A438D4B984207D019
:101D70008C4B984204D04FF6FF431A40CB881A434D
:101D800002808B8883850B880385814B98420BD01A
:101D9000854B984208D08B4B984205D08A4B98428D
:101DA00002D08A4B984201D10B7A038601238382A9
:101DB000704770B5002400220023058C4FF6FE7694
:101DC00035400584028C8388048B4FF68F752C4038
:101DD000B51E2C400D882C43751E2A400D892A43C0
:101DE0004D882A436A4DA8420BD06F4DA84208D0B7
:101DF000744DA84205D0744DA84202D0734DA8423C
:101E000013D14FF6F7752A404D892A434FF6FB75DB
:101E10002A408D882A434FF6FF652B404FF6FF5529
:101E20002B408D892B43CD892B4383800483CD8820
:101E30008586028470BD70B5002400220023058CC5
:101E40004FF6EF7635400584028C8388048B48F684
:101E5000FF752C404FF6FF452C400D884FF6FF765E
:101E600006EA05252C434FF6DF752A400D8906EA60
:101E700005152A434D8806EA05152A43444DA84214
:101E800002D0494DA8421DD14FF67F752A404D8999
:101E90004FF6FF7606EA05152A434FF6BF752A402E
:101EA0008D8806EA05152A434FF6FF352B404FF281
:101EB000FF752B408D8906EA85052B43CD8906EAFF
:101EC00085052B4383800483CD880587028470BDFC
:101ED00070B5002400220023058C4FF6FF663540C4
:101EE0000584028C8388848B4FF68F752C404FF6C7
:101EF000FC752C400D882C434FF6FF552A400D8968
:101F00004FF6FF7606EA05252A434D8806EA0525A1
:101F10002A431F4DA84202D0234DA8421DD14FF2A3
:101F2000FF752A404D894FF6FF7606EA05252A43BC
:101F30004FF6FF352A408D8806EA05252A434EF6DE
:101F4000FF752B404DF6FF752B408D8906EA051570
:101F50002B43CD8906EA05152B4383808483CD88E6
:101F60008587028470BD70B5002200230024058C93
:101F70004EF6FF7635400584038C8488828B48F6C4
:101F8000FF752A404FF6FF452A400D8820E00000EB
:101F9000002C01400004004000080040000C0040FC
:101FA000001000400014004000340140004C01408B
:101FB000005001400054014000180040001C004047
:101FC0000020004000400140004401400048014022
:101FD0004FF6FF7606EA05252A434DF6FF752B409E
:101FE0000D8906EA05352B434D8806EA05352B4356
:101FF000FA4DA84202D0FA4DA84208D14BF6FF751F
:102000002C408D894FF6FF7606EA85152C43848097
:102010008283CD88A0F84050038470BD828B4FF23C
:10202000FF331A408283828B4FF6FF7303EA01234A
:102030001A4382837047F0B50C46154600220021F2
:102040000026078C4EF6FF7C07EA0C070784828B7C
:10205000018C4FF6FF7707EA043640F6FF473A4017
:102060004FF6FF7707EA05273A434FF6FF7707EA6F
:1020700003373A43D94FB8420ED0D94FB8420BD0AC
:10208000B0F1804F08D0D74FB84205D0D64FB842F4
:1020900002D0D64FB84206D14DF6FF77394046F40C
:1020A0008057394305E047F6FF57394044F48057DD
:1020B000394382830184F0BD828B4FF6F3731A405B
:1020C0008283828B0A4382837047F0B50C461546A3
:1020D000002200210026078C4FF6FF6C07EA0C0750
:1020E0000784828B018C4FF6FF7707EA04264FF6B0
:1020F0000C773A404FF6FF7707EA03172F433A432E
:10210000B64FB8420ED0B64FB8420BD0B0F1804FA8
:1021100008D0B44FB84205D0B34FB84202D0B34F45
:10212000B84206D14FF6FF57394046F4807739431D
:1021300005E04FF2FF57394044F4807739438283FA
:102140000184F0BD028B4FF2FF331A400283028BF1
:102150004FF6FF7303EA01231A4302837047F0B579
:102160000C461546002200210026078C4FF6EF7C16
:1021700007EA0C070784028B018C4FF6FF7707EA0A
:10218000041640F6FF473A404FF6FF7707EA033759
:102190003A434FF6FF7707EA05273A438F4FB84295
:1021A0000ED08F4FB8420BD0B0F1804F08D08D4F7A
:1021B000B84205D08C4FB84202D08C4FB84206D1FD
:1021C0004FF6DF77394046F01007394305E04FF608
:1021D0005F77394044F01007394302830184F0BD32
:1021E000028B4FF6F3731A400283028B0A43028379
:1021F0007047F0B50C46154600220021068C4FF6BC
:10220000FE773E400684028B018C4FF60C763240FE
:102210007E1C06EA03162E433243704EB0420ED0A7
:102220006F4EB0420BD0B0F1804F08D06D4EB0422F
:1022300005D06D4EB04202D06C4EB04206D14FF682
:10224000FD76314044F00106314305E04FF6F57666
:10225000314044F00106314302830184F0BD70B582
:1022600005460C465D4885420ED05D4885420BD040
:10227000B5F1804F08D05B48854205D05A48854269
:1022800002D05A48854200D100E000BF208850B9F2
:102290002389A28861882846FFF7ABFFE18828469A
:1022A000FFF79EFF25E0208804280AD12389A28811
:1022B00061882846FFF753FFE1882846FFF742FF71
:1022C00017E0208808280AD12389A2886188284637
:1022D000FFF7FBFEE1882846FFF7EEFE09E02389C1
:1022E000A28861882846FFF7A6FEE1882846FFF706
:1022F00095FE70BD2DE9F04105460C4600260127EC
:10230000608808B9022600E00026A088012801D1D3
:10231000022700E001272088A0B92389A2886188CC
:102320002846FFF766FFE1882846FFF759FF238913
:102330003A4631462846FFF712FFE1882846FFF764
:1023400001FF13E02389A28861882846FFF707FF71
:10235000E1882846FFF7F6FE23893A4631462846AB
:10236000FFF747FFE1882846FFF73AFFBDE8F08115
:102370000A884B881A438B881A43CB881A430B89E7
:102380001A434B891A438B891A43A0F8442070479B
:102390004FF6FF71818000210180C1804180017270
:1023A00070470021018041808180C180018141818D
:1023B0008181C1817047002101804180012181809C
:1023C0000021C1800181704700210180418081800E
:1023D000C18001814181818170470000002C014052
:1023E000003401400004004000080040000C0040A0
:1023F00021B1028842F00102028004E002884FF617
:10240000FE731A400280704731B1B0F8442042F4A4
:102410000042A0F8442005E0B0F84420C2F30E02C8
:10242000A0F8442070471AB183890B43838102E0EE
:1024300083898B43838170478182704741EA02031D
:10244000A0F8483070471AB183890B43838102E0BA
:1024500083898B438381704701894FF6F87211405D
:10246000018170470A46002101894FF68F73194098
:1024700011430181704730B504460D462946204678
:10248000FFF7F0FF208940F00700208130BD2DE9E3
:10249000F04104460D4616461F46602D06D13B46C8
:1024A000012231462046FFF75AFE05E03B46012255
:1024B00031462046FFF79DFE29462046FFF7D2FF12
:1024C000208940F007002081BDE8F08130B50C463E
:1024D00000210189C9B24FF6FF7505EA03251543AE
:1024E00025432943018130BD2DE9F04105460E46C3
:1024F00017469846002443463A4631462846FFF799
:10250000E5FF2C894FF6F870044044F007044FF6BD
:102510008F70044044F070042C81BDE8F081F0B568
:1025200004460D4616461F463B463246294620467F
:10253000FFF7CCFF208940F480402081F0BD018569
:10254000828270470A46002101884FF68F73194036
:10255000114301807047F0B50C4615461E46002118
:10256000002200230189028B038C4FF6F877394053
:1025700021434FF6FC473A4040F201173A434FF6E9
:10258000DD773B404FF6FF7707EA06172F433B43C3
:10259000018102830384F0BD0A460021018B4FF6BE
:1025A0008F7319401143018370470A460021018B44
:1025B00048F6FF7319404FF6FF7303EA02231943ED
:1025C000018370470A460021818B4FF68F731940B3
:1025D0001143818370470A460021818B48F6FF73BF
:1025E00019404FF6FF7303EA0223194381837047B2
:1025F00021B1028842F08002028004E002884FF696
:102600007F731A400280704721B1828842F0040231
:10261000828004E082884FF6FB731A408280704704
:1026200021B1828842F00802828004E082884FF65D
:10263000F7731A408280704721B1828842F001020C
:10264000828004E082884FF6FE731A4082807047D1
:102650000A460021018B4FF6F7731940114301839D
:1026600070470A460021018B4FF2FF7319404FF665
:10267000FF7303EA02231943018370470A460021CE
:10268000818B4FF6F77319401143818370470A46D7
:102690000021818B4FF2FF7319404FF6FF7303EA5D
:1026A00002231943818370470A460021018B4FF6AC
:1026B000FB7319401143018370470A460021018BC7
:1026C0004FF6FF3319404FF6FF7303EA0223194315
:1026D000018370470A460021818B4FF6FB73194036
:1026E0001143818370470A460021818B4FF6FF33E7
:1026F00019404FF6FF7303EA0223194381837047A1
:102700000A460021018B4FF67F7319401143018364
:1027100070470A460021018BC1F30E014FF6FF738B
:1027200003EA02231943018370470A460021818B83
:102730004FF67F7319401143818370470A46002189
:10274000818BC1F30E014FF6FF7303EA0223194395
:10275000818370470A460021018C4FF6FD731940B2
:102760001143018470470A460021018C4FF6F7732C
:1027700019401143018470470A460021018C4FF62D
:10278000DF7319404FF6FF7303EA02131943018404
:1027900070470A460021018C4FF67F7319404FF6AF
:1027A000FF7303EA02131943018470470A460021AC
:1027B000018C4FF6FF5319404FF6FF7303EA0223D3
:1027C0001943018470470A460021018C4FF2FF73C0
:1027D00019404FF6FF7303EA02231943018470473F
:1027E0000A460021018C4DF6FF7319404FF6FF7326
:1027F00003EA023319430184704730B500230124F2
:102800008C40A3B2048C9C430484048C02FA01F52E
:10281000ADB22C43048430BD30B5002304248C4079
:10282000A3B2048C9C430484048C02FA01F5ADB27B
:102830002C43048430BD70B50346002000241846A4
:10284000183001258D40ACB21D8CA5431D8409B103
:10285000082909D100EB6100056825F070050560C5
:102860000568154305600EE00D1FC5F34E052844AD
:10287000056825F4E045056005684FF6FF7606EA31
:1028800002263543056070BD21B1028842F0020284
:10289000028004E002884FF6FD731A400280704700
:1028A00021B1028842F00402028004E002884FF65F
:1028B000FB731A400280704721B1828842F0800287
:1028C000828004E082884FF67F731A4082807047CE
:1028D00002884FF6F7731A40028002880A4302808A
:1028E000704782884FF68F731A40828082880A432D
:1028F0008280704702894FF6F8731A40028102897C
:102900000A430281704702894FF67F731A400281A1
:1029100002890A430281704781847047818570472C
:10292000818670470187704781877047A0F8401003
:10293000704702884FF6FF431A40028002880A431C
:10294000028070470146888E70470146088F7047A5
:102950000146888F70470146B1F840007047014634
:10296000888C70470146088D704702460020138A04
:102970000B400BB1012000E000207047CA430282E7
:10298000704730B50246002000230024158A05EA6E
:102990000103958905EA010413B10CB1012000E09F
:1029A000002030BDCA430282704700000020444925
:1029B0000860091D0860091D0860091D086041487C
:1029C0003F4914310860704700213D498279002A4F
:1029D0003AD00A46126803689A430B461A600A1DE9
:1029E000126803689A430B1D1A60027911440A6841
:1029F00003681A430A60324A0832126803689A432D
:102A00002F4B08331A601A1D126803689A432C4B27
:102A10000C331A604279102A0ED11A1F126803680B
:102A20001A43274B08331A601A1D126803681A43A9
:102A3000234B0C331A600DE02149427911440A6896
:102A400003681A430A6005E0027911440A680368C2
:102A50009A430A6070470021016001710C214171A5
:102A60000021817170471649103109680143144AE9
:102A700010321160704701460020114A143212686A
:102A80000A400AB1012000E0002070470C491431CF
:102A900008607047014600200022094B1B6803EACA
:102AA0000102074B14331B680B4013B10AB101201C
:102AB00000E00020704702491431086070470000B0
:102AC00000040140FFFF0F00704710B54C1084EA6E
:102AD000530404D54042C1F1000138BF491E1B42D6
:102AE00004D55242C3F1000338BF5B1E00F015F855
:102AF00014F0804F04D04042C1F1000138BF491E9C
:102B000014F0004F04D05242C3F1000338BF5B1EE3
:102B100010BD704770477047704753EA020C00F0D1
:102B200069802DE9F04B4FF00006002B1FBFB3FA70
:102B300083F503FA05F424FA05F65E4012BF164346
:102B4000B2FA82F502FA05F4C5F120051EBF22FA99
:102B500005FC44EA0C04203556EA044C4FEA1444C0
:102B600018BF641C4FF000084FF00009904271EB51
:102B7000030C39D3002919BFB1FA81F701FA07F61E
:102B8000B0FA80F700FA07F6C7F120071EBF20FA57
:102B900007FC46EA0C062037B6FBF4FCA7EB05075A
:102BA000103F07F01F0BCBF120060CFA0BFB2CFAA1
:102BB00006F644BFB3460026202FA4BF5E464FF062
:102BC000000B5BEA060C08BF4FF0010B19EB0B0979
:102BD000ABFB027C48EB0608C01B06FB02CC0BFBE0
:102BE00003CC71EB0C01C1E70B4602464146484657
:102BF000BDE8F08B13B54FF000004FF00001AFF3CC
:102C00000080BDE81C40704710B500F009F800686E
:102C100010BD10B5044600F003F8046010BD0000BC
:102C200000487047DC01002000487047DC010020AC
:102C30007546FFF7F9FFAE4605006946534620F09A
:102C40000700854618B020B5FEF79EF9BDE8204084
:102C50004FF000064FF000074FF000084FF0000B58
:102C600021F00701AC46ACE8C009ACE8C009ACE80B
:102C7000C009ACE8C0098D46704710B50446AFF3F3
:102C800000802046BDE81040FDF799BA490050EA9F
:102C9000C12018BF04204A0D18BF40F0010040F2C7
:102CA000FF72B2EB515F08BF40F00200012808BF7D
:102CB000052070472DE9F0414F1E00EBC701044687
:102CC000D1E9000115461E4637F006020DD02A460E
:102CD000334600F0DFFF7F1E04EBC703D3E9002378
:102CE00000F070FD37F00602F1D1022F25D0042F3D
:102CF00013D0062F18BFBDE8F0812A46334600F0F6
:102D0000C9FFD4E90A2300F05DFD2A46334600F0EE
:102D1000C1FFD4E9082300F055FD2A46334600F0F0
:102D2000B9FFD4E9062300F04DFD2A46334600F0F2
:102D3000B1FFD4E9042300F045FD2A46334600F0F4
:102D4000A9FFD4E9022300F03DFD2A46334600F0F6
:102D5000A1FFD4E90023BDE8F04100F033BD00003D
:102D6000002213461046014900F0E8BD0000F03F84
:102D700000F028BD002213461046114600F0DEBDCB
:102D800040F2013200204FF0E04101F026BB00008C
:102D9000024A0020110701F020BB000001FDFFFFE7
:102DA0002DE9F04D1D460C4698B0174621F0004124
:102DB00023F00043002814BF4FF0010C4FF0000C2B
:102DC0000CEB440CFE4A0CEB02064FEA620C664523
:102DD0002BD33E0018BF012606EB45061644F94AE0
:102DE000964222D3F84A53EA070C02D0944205D106
:102DF00048B918B000201146BDE8F08D002808BF82
:102E00004FF0000C01D04FF0010C0CEB440212F516
:102E1000001F0AD8002F14BF4FF0010C4FF0000C18
:102E20000CEB450212F5001F07D918B03A462B46A5
:102E30002146BDE8F04DFFF79BBF0022DFF88CA3D1
:102E4000002CB8BF534526DADFF884C36345A8BF1A
:102E5000022220DADFF870C39C451CDCDFF874C363
:102E60000CEB235CBCF1140F08DDCCF1340627FA1F
:102E700006FC0CFA06F6BE420DD108E05FB9CCF1B3
:102E8000140623FA06FC0CFA06F69E4203D10CF057
:102E90000102C2F1020251EA000C19D1002D17DA29
:102EA000002C18BF022A01D0012A07D00220FFF708
:102EB000B0FE18B0BDE8F04DFFF752BF0220FFF79B
:102EC000A8FEFFF74DFF18B081F00041BDE8F08D7E
:102ED000B7F1000C6CD1534525D104F1804212F5B5
:102EE000801201BF00280020B74918B008BFBDE814
:102EF000F08DB548884207DC002DA1BF6046294609
:102F000018B0BDE8F08D07E0281E05DA80F000411A
:102F100018B06046BDE8F08DAF497944D1E90001B1
:102F200018B0BDE8F08DDFF8A0C2634525D1002DB3
:102F30001FDA19B1514512D1D8B909E0002840F083
:102F4000EC82A24A214618B062F31E01BDE8F08D62
:102F50000020214618B060F31E01BDE8F08D08DAAC
:102F600018B02346BDE8F04D02460020614600F04F
:102F7000E5BC18B02146BDE8F08D514518DAB5F131
:102F8000804F0DD0A5F1005CBCF1FF5C10D1B4F115
:102F9000000C0DDB18B06146BDE8F04D00F0ECBB55
:102FA000234618B00246BDE8F04D194600F072BE47
:102FB000060024F0004C3BD1D9B1514533D1002C4F
:102FC00006DD002DA1BF0020514618B0BDE8F08DF0
:102FD000002C01DD002D1BDB002C13DA002D11DB92
:102FE000012A4FF0000014BF78497C4918B0BDE8B1
:102FF000F08D022A18BF002C0AD0012A08D1002C1B
:1030000006DA0AE0002CB8BF002D11DA012A04D03C
:10301000002018B00146BDE8F08D18B000204FF038
:103020000041BDE8F08DA1F14050B0F17F601AD0B1
:10303000012000EBE47050EA020421D0624C521EE1
:103040004FF0000B104304BF4FF0000B644C654879
:1030500083427CDD644A654893421FDD884217DB6A
:10306000002D25DB37E0002C00DA4AB1022A0CBF24
:1030700001204FF0FF3018B0BDE8F04D00F0B6BDB4
:103080000120FFF7C6FD18B0BDE8F04DFFF772BE96
:103090004D4A8A4202DC002D0ADC1CE0814202DA41
:1030A000002D18DA04E0484B994220DD002D12DD96
:1030B0000220FFF7AEFDFFF763FE05460E46002235
:1030C00053465846214600F0E5FD18B066F31E0150
:1030D0002846BDE8F08D0220FFF79BFDFFF758FE64
:1030E0000A46214618B062F31E01BDE8F08D0022A9
:1030F0003046614600F0F4FF80460E466FF0010254
:1031000001F06BF94FF05532394B00F0F7FE4246B3
:10311000334600F0BFFD0022364B00F0EFFE824642
:103120004246334604911046194600F0B3FD52461C
:10313000049B00F0AFFD8A4600904FF0C0422E4B3A
:103140004046314600F0A6FD2C4A2B4B00E027E01C
:10315000CDE906015146009800F09CFD82460191A0
:10316000274A284B4046314600F094FD5246019BC9
:1031700000F0B6FF82460B4602460591DDE90601E6
:1031800000F020FBDDE9062300268846304600F0EB
:10319000A7FF5246059B00F0B1FE024600F07EB943
:1031A0000020B1F5801F07DA35223046614601F074
:1031B00014F906466FF0340000EB215024E00000C3
:1031C000FFFF1F00FFFF0F000000F03F0000F07F37
:1031D0000000404301FCFFFF3A1700000000F0FF31
:1031E0000000F0BF0000E0410000F043FFFFEF3FB0
:1031F0005555D53F0000E03F4715F73FFE822B6550
:1032000044DF5DF80BAE543EA0F2FF300190C1F3F5
:10321000130040F07F6141F040510291FE49884225
:10322000D8BF002004DDFD498142C8BF012001DD77
:103230000D9008E000200D900198401C019002982C
:10324000A0F5801002900299F54878440B910D99F1
:1032500000EBC100D0E900230F9330460A920B998E
:1032600000F03EFFCDE90601DDE90A2130460F9B63
:1032700000F0A8FA02460B460020EA4900F05EFB87
:10328000059102460B460090DDE9060100F002FDC3
:103290001490E5488A464FF0000878440299006887
:1032A00012904FF0005040EA61010D980F9B01EB26
:1032B000804000F5002109910A9A129800F010FF51
:1032C00032460B9B00F01AFE4246534600F0E2FCE9
:1032D0000646029140465146099B129A00F0DAFCDC
:1032E000DDE9062300F00AFE3246029B00F0F8FEFC
:1032F000059B009A00F0CEFC0091149A049053466E
:103300001046194600F0C6FC06460246C7480B4662
:10331000029106217844FFF7CDFCCDE90510029B10
:1033200032461046194600F0B5FCDDE9053200F0E2
:10333000B1FC05910646534640461946149A00F0E2
:1033400041FA009B049A00F0A5FC3246059B00F070
:1033500039FACDE90510424653461046194600F0A9
:1033600099FC0022B24B02910A9000F02BFADDE9A1
:10337000053200F027FA0E464246AD4B404600F0BB
:10338000AFFE029B0A9A00F0ABFEDDE9053200F0C9
:10339000B5FD424602910A9033461046514600F070
:1033A00079FCCDE906015346149A02990A9800F077
:1033B00071FC8A460290334642460099049800F018
:1033C00069FC5346029A00F0FDF982460B4602461C
:1033D0000591DDE9060100F0F5F9DDE9062300209D
:1033E0008846064600F07CFE5246059B00F086FDAE
:1033F000824609914FF060428E4B3046414600F0C4
:1034000049FC049006918C4A8A4B5046099900F079
:1034100041FC82460291894A894B3046414600F080
:1034200039FC5246029B00F0CDF9864B7B440D9A45
:1034300003EBC203D3E9002300F0C4F90E90079117
:10344000019800F0D3FB0591DDE9061382460E9A40
:10345000049800F0B7F97C4A7A440D9B02EBC30351
:10346000D3E900230093029200F0ACF95246059B89
:1034700000F0A8F90026884652463046059B00F029
:103480002FFE009B029A00F02BFE069B049A00F090
:1034900027FE079B0E9A00F031FD024600200B46E6
:1034A00002903846294600F0F5FB824601912B46F2
:1034B00038461946029A00F013FE3246434600F0A1
:1034C000E9FB5246019B00F07DF907468A463246E9
:1034D00043462946029800F0DDFB05460E463A4673
:1034E000534600F06FF9594A8846914221DBA8EB18
:1034F000020353EA000210D12A46334600F0F0FDE1
:10350000CDE90401524A534B3846514600F05AF96E
:10351000DDE9042300F0BCFC21D20220FFF779FB97
:10352000FFF72EFC0A46214618B062F31E01BDE8E3
:10353000F08D494B28F000429A4210D3474A08EBDD
:10354000020353EA00027FF4C6AD2A46334600F078
:10355000C7FD3A46534600F09BFC7FF6BCAD002207
:10356000019228F000403E493E4A01EB2051824240
:1035700023DA481C4FF4801121FA00F040443A4A03
:10358000C0F30A517A44394BA1F2FF31CB4020EA13
:103590000303C0F3130040F48010C1F11401C840CC
:1035A00012680190B8F1000FBCBF4042019028465C
:1035B000314600F095FD05460E462A46334638460C
:1035C000514600F0FFF84FF000084246284B4046B5
:1035D000059100F05FFBCDE90601264A264B4046E7
:1035E000059900F057FB009102902A463346404669
:1035F000059900F075FD3A46534600F07FFC1F4ADE
:103600001F4B00F047FB009B029A00F0DBF80746D7
:10361000884602460B4635E08E9803007AB60B00CA
:10362000821300000000F03FBA130000E81200000F
:103630000000084009C7EE3FFD033ADCF5015B14CA
:10364000E02F3EBEC0110000841100000000904039
:10365000FE822B654715973C00CC904000346F3FAD
:1036600001FCFFFF0000E03FD0100000FFFF0F0053
:10367000432EE63F396CA80C615C20BEEF39FAFEA0
:10368000422EE63FDDE9060100F09CF8DDE9062365
:1036900005460E4600F024FD3A46434600F02EFC57
:1036A0000F462A46334600901046194600F0F2FABB
:1036B000824602462E4888460B4605217844FFF78D
:1036C000F9FA5246434600F0E5FA2A46334600F03E
:1036D00015FC80468A463B4628463146009A00F053
:1036E000D9FA3B46009A00F06DF80691009000224E
:1036F0004FF080434046514600F0F2FC0F460C90DC
:10370000424653462846314600F0C4FA3B460C9ADE
:1037100000F014F9069B009A00F0E2FC2A463346BA
:1037200000F0DEFC0022134B00F0E8FB0546019898
:103730000E4601EB00510815002810DC28463146E2
:10374000019A00F04AFEFFF7A1FA042808BFFFF72C
:103750001FFB28463146019A00F03FFE05460B4606
:1037600018B02A4658462146BDE8F04D00F092BAFE
:10377000700F00000000F03F2DE9F04106460F46B3
:1037800000F0C8FB041E0D4618BF0120284320F09E
:103790000040C0F17F6000F1E040C00F0ED0301C4F
:1037A00018BF0120384320F00040C0F17F6000F1D5
:1037B000E040C00F04BF0120FFF72BFA2046294646
:1037C000BDE8F08110B591EA030F48BF83F00043D4
:1037D00000F18E84841A71EB030C05D2121943EBAD
:1037E0000C03001B61EB0C01DFF824E14FEA1154DC
:1037F000A4EB135C1EEA430F18BF9EEA445F73D02C
:1038000023EA0E03DCF1200E21EA045143F4801375
:1038100032D322FA0CFE10EB0E0023FA0CFE41EB21
:103820000E01CCF1200E03FA0EFE10EB0E0051F14A
:103830000001B1F5801FCCF1200E32D201EB045112
:1038400012FA0EF2BDE8104058BF7047401C38BF56
:103850005FEA420218BF7047002814BF20F0010041
:1038600041F100014FEA410313F5001F38BF7047D3
:10387000A1F1C04100F006BB012A43EB0302ACF109
:10388000200CDCF11F0E32BF4FF0000E23FA0CF3B8
:1038900010EB030041EB0451B4EB115FD0D0A1EB6E
:1038A000045101F5801149085FEA300001EB045131
:1038B0000ED350F1000038BF12FA0EFE08D1BDE859
:1038C0001040C9E7401C38BF5FEA4202CAD1C3E7D3
:1038D000BDE810404FEA410313F5001F38BF7047A1
:1038E000A1F1C04100F0CEBA9EEA445F08D011EACF
:1038F0005E0FBDE8104004BF01F00041002070479A
:10390000BDE8104070B500F06FFA00BF64FBBE3E2A
:103910000000E0FF02494FF0000000F02CBD00BFA6
:103920000000F87F491058BFC1F140415B1058BFFB
:10393000C3F140438B42EFF3008070472DE9C04153
:1039400030B4DFF8A0C23CEA111418BF3CEA1314EB
:1039500000F0EC8081EA03051CEA111444EAD574F6
:1039600018BF1CEA131500F0C780A4EB05044FF044
:10397000004545EAC12145EAC32341EA505143EAE3
:10398000525304F17F74994204F500344FEAC02089
:103990004FEAC22208BF904200F09C804FEA1365B4
:1039A0000FF24016765D4FEA134506FB05F7C7F1A7
:1039B000807706FB07F74FEAD737A7FB0368764205
:1039C000C8F58038A7FB06CE38BFA8F1010807FB71
:1039D00008E64FF0000EA6FB028CE6FB03CEDCF1FE
:1039E000000CCEF1004E38BFAEF1010EA6FB0C5814
:1039F0004FF000074FF00005E6FB0E87A1FB08C65D
:103A0000A0FB07CE16EB0E0645F10005E1FB0765AE
:103A100015F1E04E7EBFA4F580345FEA46066D41A5
:103A200016F1800745F100054FEA17274FEA0666B1
:103A300047EA0567A6F1DE46B6F1805F4FEA152535
:103A40001FD9384624F0010C05EBC471BCF1FE6FA0
:103A500001EB0C1102D8F0BCBDE8008124425CBF30
:103A600001F5801E9EEAC47F02D4F0BCBDE800814F
:103A7000244238D4F0BCA1F1C041BDE8004100F0BF
:103A800001BA4FEAD22242EA43524FEAD323A7FBBC
:103A900002864FEAD02040EA415007FB03661EEA47
:103AA0000E0F4FEAD12105FB026658BFA6EB005668
:103AB000B6EB00564FEA520E4EEAC37E18EB0E0EDE
:103AC00056EB530EBDD518EB02085E417F1C55F135
:103AD0000005B6E74FF480154FF000074FF00006E1
:103AE0004FF00008ADE7F0BC4FF0000001F1C0411D
:103AF00001F00041BDE8008111EA0C1F0CEA13152A
:103B000000D00CE013EA0C1F00F025804FF00000FD
:103B1000F0BC81EA030101F00041BDE80081F0BC86
:103B2000BDE8004181EA030100F0ACB9F0BCBDE89A
:103B3000004170B500F058F9097EFC3E00F007B86E
:103B400081EA03014FF0000001F00041704781EA73
:103B5000030100F097B9F0BCBDE800414FF0000050
:103B600021497047FFFDFBF9F7F5F4F2F0EEEDEBBC
:103B7000E9E8E6E4E3E1E0DEDDDBDAD8D7D5D4D36B
:103B8000D1D0CFCDCCCBCAC8C7C6C5C4C2C1C0BFB7
:103B9000BEBDBCBBBAB9B8B7B6B5B4B3B2B1B0AFBD
:103BA000AEADACABAAA9A8A8A7A6A5A4A3A3A2A1A1
:103BB000A09F9F9E9D9C9C9B9A999998979796955C
:103BC00095949393929191908F8F8E8E8D8C8C8BF8
:103BD0008B8A898988888787868585848483838280
:103BE000828181800000FF070000F87F10F0004212
:103BF00048BF4042B0FA80F310FA03F10AD0C3F193
:103C00001D0303F580634FEA415002EB035202EBC0
:103C1000D12170474FF000007047000051EA030CBB
:103C200017D41CF5801F58BFBCF5801F00F106801B
:103C3000994218BF704708BF9042704707D711F5E7
:103C4000801F58BF13F5801F19D4994270478942CD
:103C500070471CF5801F08D5BCF5801FF7D58B4237
:103C600018BF704708BF824270474FF4001C1CEB1E
:103C7000410F38BF1CEB430F01D28B42704770B528
:103C800000F0B2F8922449004FF000514FF08053F9
:103C9000FFF748BEDFF848C170B51CEA111E1EBF11
:103CA0001CEA13159EEA0C0F95EA0C0F00F06F80CA
:103CB00081EA030423EA4C134EEAD47E21EA4C1134
:103CC00041F4801143F48013AE44A1FB024CA0FBED
:103CD0000365AEF17F7E361955EB0C05A1FB034C55
:103CE0004CF10003A0FB021C16EB0C06654153F1DE
:103CF0000003094218BF46F0010613F4007F0BD100
:103D00004FEA03314FEA0530340341EA155140EAE6
:103D100016506FF003020AE04FEAC3214FEAC520B4
:103D2000F40241EA555140EA56506FF0020202EBAC
:103D30002E4201EB025585EACE710AD05FEA440CAF
:103D400018BF24F0004450F1000041F1000120EAC6
:103D5000D47040F2FE7C624500D270BDA84214BF10
:103D60004FF080444FF04044002E08BF0024BEF1C5
:103D7000806FA8BFA1F1C041BDE8704080F2828091
:103D80004FF0000001F1C04101F0004170479EEA90
:103D90000C0F0CEA131518BF95EA0C0F06D04FF064
:103DA000000081EA030E0EF0004170BD00F01CF827
:103DB0008900013E00F007B800F009B84FEA430C53
:103DC0005FEA5C5C08D081EA030100F05BB84FEA6F
:103DD000410C5FEA5C5CF6D14FF00000014970478E
:103DE0000000FF070000F87F0EF1020E2EF0030E18
:103DF0005EF8046B364205D4012A43EB030515F542
:103E0000001F12D8012841EB010C1CF5001F0CD833
:103E10000ED14FEAD17C15F5001F0CEB4C0C0CF1C8
:103E2000020C08BF4CEBD37C04E04FF0080C01E01F
:103E30004FEAD37C0CEB4C0526FA05F606F0070694
:103E4000B6F1040C06D20EEB860CBDE870404CF0C7
:103E5000010C6047DFE80CF0090B02024FF0004153
:103E60004FF00000A1F5002170BD19461046012851
:103E700051EB010418BFD4F5001484BF002001F0F9
:103E8000004170BD0808A0F500114FEA31017047EC
:103E900053EA010C17D41CF5801F58BFBCF5801FD6
:103EA00000F106808B4218BF704708BF82427047FE
:103EB00007D713F5801F58BF11F5801F19D48B4207
:103EC00070479B4270471CF5801F08D5BCF5801FCA
:103ED000F7D5994218BF704708BF904270474FF41A
:103EE000001C1CEB430F38BF1CEB410F01D2994261
:103EF00070470FB40CBC03BCFFF7C1BE91EA030FBF
:103F000010B581F000413FF565AC83F0004300F04F
:103F1000EFB800002DE9F04101F5801CBCF5001F51
:103F2000C0F2C3804FEA115C21EA0C510CF1FD0C88
:103F300041F480115FEA5C0C0CF5C07C01D34000B9
:103F400049413DA4890241EA905187028E0E0A0C34
:103F5000A45D04FB04F602FB06F6C6F14046A4FB92
:103F60000662F60D46EA422606FB06F4A4FB012390
:103F70005242C3F1404338BF5B1EA6FB02420024FD
:103F8000E6FB0324D20B42EA4446A6FB0623A1FB30
:103F900002E2A3FB07E4A4184FF0000252F1000272
:103FA000E3FB01426442C2F1404E38BFAEF1010E64
:103FB000A6FB04234FF00002E6FB0E32A2FB0346F1
:103FC0004FF00004B61954F10004E2FB0264A1FBB7
:103FD00006E6A4FB07E816EB08064FF0000858F1C8
:103FE0000008E4FB01687642C8F1405838BFA8F1E8
:103FF0000108A2FB06E4A3FB08E52D194FF000041D
:1040000054F10004E2FB0854A1FB05E6A7FB04E819
:1040100018EB06084FF0000656F10006E1FB048697
:1040200018F1200556F10006A809A8F11B08B109EE
:1040300008F03F08B8F10A0F40EA86601CD901EB8E
:104040000C51BDE8F08100BFFCF5EEE8E2DDD8D30D
:10405000CFCBC7C3C0BDB9B6B4B1AEACA9A7A5A3F9
:10406000A19F9D9B9A9896959392908F8D8C8B890A
:104070008887868584838281A0FB006800FB01F22B
:1040800008EB4208B8EB872807D5341858EB010431
:10409000D5D5401C51F10001D1E7341A78EB010469
:1040A000CDD4401E71F10001C9E75FEA4C0C5FEA14
:1040B0009C5C0DD105D34FF0000001F00041BDE83C
:1040C000F081BDE8F04170B5FFF78EFE6DDBFFBEFD
:1040D000BDE8F0414FF00000004970470000F87F54
:1040E00010B591EA030F48BF83F000433FF572AB70
:1040F000841A71EB030C07D212198CF0004C43EBBD
:104100000C03001B61EB0C01DFF8A4E14FEA115432
:10411000A4EB135C1EEA430F18BF9EEA445F00F055
:10412000B08023EA6E03524221EA0451C3EB6E03CE
:1041300038BF5B1EDCF1200E25D322FA0CFE10EBFB
:104140000E0043FA0CFE41EB0E01CCF1200E03FAF7
:104150000EFE10EB0E0051F10001CCF1200E29D41F
:1041600012FA0EF201EB0451BDE8104058BF70473F
:10417000401C1CBFB2F1004F704700280CBF491C07
:1041800020F00100704712EB020E43EB030218BF50
:104190004FF0010E4EEA4202ACF1200CDCF11E0E93
:1041A00054D943FA0CFE10EB0E0051F1FF31CCF163
:1041B0001E0ED5D50EF1010E12FA0EFE404141EB56
:1041C000010101EB445C5FEA5C5C10D910EBDE702E
:1041D00001EB045138BFBEF1004FBDE8104018BFDD
:1041E000704700280CBF491C20F00100704730D2F6
:1041F0004FEAD42C11F5001124F400641BD0B1FA5D
:1042000081F20B3AA41AA41ED2F12003914030FA95
:1042100003F31943904001EBCC71002C01EB0451E6
:10422000BDE81040A8BF704701F1C0414FF0000049
:1042300001F000417047B0FA80F310FA03F100D1A9
:1042400010BDE41A173C4805C90AE4E701EB045124
:1042500010BD491001EB0451BDE810404FEA300099
:1042600002E04FF0000170474A0008BF0042F8D05A
:10427000B2F5001F28BF704701F000414FF0000069
:1042800070479EEA445F07D011EA5E0FBDE8104018
:1042900004BF002100207047BDE8104070B5FFF753
:1042A000A3FD00BF40DFF63E83F00041104670479B
:1042B0000000E0FF4FEAC1230A1543EA50534FEADA
:1042C000C02C18BF43F000431BD4A2F24E02D2F51B
:1042D0007C7240F34280502AA8BF502223FA02F198
:1042E0002CFA02F0D2F1200260B403FA02F588BF82
:1042F0002843C2F1000223FA02F598BF284360BCAC
:10430000704702F57C7212F5826F08BF23F00043FC
:10431000D2F12E0221DB1AD0502AA8BF502223FA54
:1043200002F12CFA02F0D2F1200260B403FA02F595
:1043300088BF2843C2F1000223FA02F598BF284340
:1043400060BC4042C1F1000138BF491E70479CF07B
:10435000000F08BF93F0004FDED070B5FFF744FDAB
:104360009224498000214FF0000070476FEAE1700D
:1043700080F0004170470CF00F03092B08BF0820A4
:1043800000F059800A2B0BD0082B18BF704708BFCC
:104390001CF0400F0AD04FF000004FF000017047B2
:1043A0001CF0400F18BF4FF0004070471CF0100F7A
:1043B00008D020F0704300F07F4242EAD3014FEA78
:1043C0004370704700F0604021F07F4242EA0002F3
:1043D00001F07F4040EA727070474FF0FF0C4CF4E0
:1043E000E06C1CEA11531CBF9CEA030C9445C2BF4D
:1043F000DA4201EB02517047002B0DD0BCF1000FE7
:104400000FD0002A01F00041A4BF41F0E04141F08B
:104410007F614FF00000704701F000414FF0000055
:10442000704750EA01334FF09B0C18BF4CF0806C82
:104430007FF470AA70471CF4801F11D01CF4E02F89
:1044400003D06FEACC31490070474FF04050EFF392
:10445000008222F0704242EA000282F30088704734
:104460004FF000007047FFFE4A00B500007D0009D4
:104470000000006D6265645F6F646F6D0F00000087
:104480007374645F6D7367732F537472696E672002
:104490000000003939326365386131363837636579
:1044A0006338633862643838336563373363613443
:1044B0003164310002000066FFFE5100AE00007E54
:1044C00000100000006D6F746F725F636F6E747226
:1044D0006F6C5F43420F0000007374645F6D73671D
:1044E000732F537472696E6720000000393932638C
:1044F00065386131363837636563386338626438EC
:10450000383365633733636134316431000200004E
:104510008FFFFE4E00B1010064000D0000006D6FC2
:10452000746F725F636F6E74726F6C0F0000007354
:1045300074645F6D7367732F537472696E672000C4
:104540000000393932636538613136383763656365
:1045500038633862643838336563373363613431C4
:104560006431000200008FFFFE1600E97D0012009A
:1045700000005B6F646F6D5D4C3A322C523A322C06
:104580003832373169000000FFFE0800F70A0000EA
:1045900000000000000000F5B31D000851260008CF
:1045A00021290008371E0008632600082529000875
:1045B000D11E00087D26000829290008671F000871
:1045C0008F2600082D290008E803E80301000100F8
:1045D000000000000000F03F000000000000F83F75
:1045E00000000000000000000000004003B8E23FAF
:1045F000000000000000000006D0CF43EBFD4C3E61
:10460000033333333333E33FFFAB6FDBB66DDB3F55
:104610004D268F515555D53F01411DA96074D13F9D
:1046200065DBC9934A86CD3FEF4E454A287ECA3F97
:104630003E5555555555C53F93BDBE166CC166BF19
:104640002CDE25AF6A56113FF16BD2C541BDBBBE12
:10465000D0A4BE726937663E000000000000000072
:1046600080460008000000207C0000006C0100086B
:10467000FC4600087C000020C407000088010008F8
:104680000000000000A24A0400000000000000003A
:104690000102030406070809533A30543A6263647E
:1046A000000000000000000000000000000000000A
:1046B0000000E803E8030100010000000000000022
:1046C00000000000000000000000000000000000EA
:1046D00000000000000000000000000000000000DA
:1046E00000000000000000000000000102030401BF
:0C46F00002030406070809020406080083
:0400000508000131BD
:00000001FF
